{"abi":[{"type":"constructor","inputs":[{"name":"initvalue","type":"bool","internalType":"bool"}],"stateMutability":"nonpayable"},{"type":"function","name":"flip","inputs":[],"outputs":[],"stateMutability":"nonpayable"},{"type":"function","name":"get","inputs":[],"outputs":[{"name":"","type":"bool","internalType":"bool"}],"stateMutability":"view"}],"bytecode":{"object":"0x6080604052348015600f57600080fd5b50604051610115380380610115833981016040819052602c916041565b6000805460ff19169115159190911790556068565b600060208284031215605257600080fd5b81518015158114606157600080fd5b9392505050565b609f806100766000396000f3fe6080604052348015600f57600080fd5b506004361060325760003560e01c80636d4ce63c146037578063cde4efa9146051575b600080fd5b60005460ff16604051901515815260200160405180910390f35b60676000805460ff19811660ff90911615179055565b00fea26469706673582212200f3c27bf22847dd66a43d4f78d56ff5970e6650f45e36fa821ec82bd2efbca8764736f6c634300081a0033","linkReferences":{}},"methodIdentifiers":{"flip()":"cde4efa9","get()":"6d4ce63c"},"id":0}