{
  "contractName": "Flipper",
  "abi": [
    {
      "inputs": [
        {
          "internalType": "bool",
          "name": "initvalue",
          "type": "bool"
        }
      ],
      "stateMutability": "nonpayable",
      "type": "constructor"
    },
    {
      "inputs": [],
      "name": "flip",
      "outputs": [],
      "stateMutability": "nonpayable",
      "type": "function"
    },
    {
      "inputs": [],
      "name": "get",
      "outputs": [
        {
          "internalType": "bool",
          "name": "",
          "type": "bool"
        }
      ],
      "stateMutability": "view",
      "type": "function",
      "constant": true
    }
  ],
  "bytecode": "0x608060405234801561001057600080fd5b506040516101ca3803806101ca8339818101604052810190610032919061008e565b806000806101000a81548160ff021916908315150217905550506100bb565b600080fd5b60008115159050919050565b61006b81610056565b811461007657600080fd5b50565b60008151905061008881610062565b92915050565b6000602082840312156100a4576100a3610051565b5b60006100b284828501610079565b91505092915050565b610100806100ca6000396000f3fe6080604052348015600f57600080fd5b506004361060325760003560e01c80636d4ce63c146037578063cde4efa9146051575b600080fd5b603d6059565b6040516048919060b1565b60405180910390f35b6057606f565b005b60008060009054906101000a900460ff16905090565b60008054906101000a900460ff16156000806101000a81548160ff021916908315150217905550565b60008115159050919050565b60ab816098565b82525050565b600060208201905060c4600083018460a4565b9291505056fea264697066735822122053eb04a201fcbcb0992a29c0aa68994faaf78ccf7b09ff7270e252cd1b82b77f64736f6c634300080d0033",
  "immutableReferences": {},
  "source": "// SPDX-License-Identifier: UNLICENSED\n\npragma solidity ^0.8.13;\n\ncontract Flipper {\n        bool private value;\n\n        /// Constructor that initializes the `bool` value to the given `init_value`.\n        constructor(bool initvalue) {\n                value = initvalue;\n        }\n\n        /// A message that can be called on instantiated contracts.\n        /// This one flips the value of the stored `bool` from `true`\n        /// to `false` and vice versa.\n        function flip() public {\n                value = !value;\n        }\n\n        /// Simply returns the current value of our `bool`.\n        function get() public view returns (bool) {\n                return value;\n        }\n}\n",
  "sourcePath": "/usr/dev/polka/polkamask/contracts/flipper.sol/contracts/Flipper.sol",
  "compiler": {
    "name": "solc",
    "version": "0.8.13+commit.abaa5c0e.Emscripten.clang"
  },
  "schemaVersion": "3.4.16",
  "updatedAt": "2023-12-29T17:59:36.998Z",
  "networkType": "ethereum",
  "devdoc": {
    "kind": "dev",
    "methods": {},
    "version": 1
  },
  "userdoc": {
    "kind": "user",
    "methods": {
      "constructor": {
        "notice": "Constructor that initializes the `bool` value to the given `init_value`."
      },
      "flip()": {
        "notice": "A message that can be called on instantiated contracts. This one flips the value of the stored `bool` from `true` to `false` and vice versa."
      },
      "get()": {
        "notice": "Simply returns the current value of our `bool`."
      }
    },
    "version": 1
  }
}